:020000020000FC
:100000000FE50DBF04E00EBF0AEF1DE429E93AE752
:1000100041EB8827BFE10E940E00F6CFCC270E945B
:100020004800081731F0501730F05091100060E18F
:1000300002C0C395B051181731F0511730F05091EC
:10004000110061E102C0C395B850281731F0521772
:1000500030F05091120062E102C0C395B4503817DD
:1000600031F0531730F05091130063E102C0C39593
:10007000B250481731F0541730F05091140064E139
:1000800002C0C395B1500E946600C53038F2089591
:10009000AB2FAF71A03120F05091100060E115C07E
:1000A000A83020F05091110061E10FC0A43020F081
:1000B0005091120062E109C0A23020F0509113006B
:1000C00063E103C05091140064E108956F50613002
:1000D00041F0623039F0633031F0643029F065303E
:0E00E00021F0002711272227332744270895F7
:00000001FF
